:020000040000FA
:0400000074EF3FF06A
:107EA800060083841A0E026E5E0E016E6E0EE82EB8
:107EB800FED7012EFCD7022EFAD700D083941200E9
:107EC8000C06D8A00D060C500D10D8A404D0000E36
:107ED8000D6E060E0C6E0C38F00B0A10816E120037
:107EE800A80EF66E7E0EF76E000EF86E0900F5CF3E
:107EF8000CF00900F5CF0DF00B6A0A6A0001C3EF18
:107F08003FF001500302F3CF05F0F4CF06F0015023
:107F18000402F350062602500302F350062605C059
:107F280001F006C002F012000A500B10D8B404D0B9
:107F38000A06D8A00B0607D0000E0B6E090E0A6EB3
:107F48000C06D8A00D060C38F00B0A10816E120032
:107F5800000E036E3C0E026E0D0E016EFC0EE82E36
:107F6800FED7012EFCD783760206D8A0030603BEEF
:107F780012000350F1E10204D8A01200EDD7030E5D
:107F8800956E000E836E000E936E600E816E83A058
:107F98000CD064EC3FF007D0820E096EDE0EE82E9E
:107FA800FED7092EFCD783B0F7D783A2F0D7DEEC33
:107FB8003FF0EDD70CC001F00DC002F0000E046ECA
:107FC8000A0E036E85EC3FF001C007F002C008F00E
:107FD80008BE0DD0085003E10704D8A008D098ECDB
:107FE8003FF0ACEC3FF00706D8A00806F1D755ECF7
:087FF8003FF0600E816E1200E3
:020000040020DA
:08000000FFFFFFFFFFFFFFFF00
:020000040030CA
:0E00000000051F1FFF8385FF0FC00FE00F409C
:00000001FF
