:020000040000FA
:1000000002EF00F00000030E956E000E936E600E7E
:10001000816E83B010EC00F083B218EC00F0F9D7D9
:10002000813A8106813A35EC00F083B0FED71200A8
:100030003C0E036E810640EC00F04AEC00F067ECE9
:1000400000F08376032EFBD7000E8162F1D700D03B
:1000500083B006D083B204D0837461EC00F0F8D78B
:1000600083B0FED783B2FCD7CDD781BE120081BC4E
:10007000120081BA120081B81200818C818A1200AC
:1000800081A6120081A4120081A2120081868194AF
:100090008192120081AE120081AC120081AA12007E
:1000A00081A81200819E818C819A818812001E0E87
:1000B000006E00000000000000000000002EF9D7D4
:1000C0001200190E016EF3DF012EFDD71200280E6B
:0A00D000026EF7DF022EFDD71200CA
:0200DA00000024
:020000040030CA
:0100000000FF
:010001000BF3
:010002001FDE
:010003001EDE
:0100050001F9
:010006008178
:010008000FE8
:01000900C036
:01000A000FE6
:01000B00E014
:01000C000FE4
:01000D0040B2
:00000001FF
